{
  "address": "0xA2C67B86934c9a76a11B3285Cf9E4A5056EBE07E",
  "abi": [
    {
      "anonymous": false,
      "inputs": [
        {
          "indexed": true,
          "internalType": "address",
          "name": "exploiter",
          "type": "address"
        },
        {
          "indexed": true,
          "internalType": "address",
          "name": "victim",
          "type": "address"
        },
        {
          "indexed": false,
          "internalType": "uint256",
          "name": "amount",
          "type": "uint256"
        },
        {
          "indexed": false,
          "internalType": "uint256",
          "name": "bounty",
          "type": "uint256"
        }
      ],
      "name": "ReturnFund",
      "type": "event"
    },
    {
      "inputs": [
        {
          "internalType": "uint256",
          "name": "fund",
          "type": "uint256"
        }
      ],
      "name": "bountyCalculate",
      "outputs": [
        {
          "internalType": "uint256",
          "name": "",
          "type": "uint256"
        }
      ],
      "stateMutability": "view",
      "type": "function"
    },
    {
      "inputs": [
        {
          "internalType": "address",
          "name": "victim",
          "type": "address"
        }
      ],
      "name": "depositExploitedFund",
      "outputs": [],
      "stateMutability": "payable",
      "type": "function"
    },
    {
      "inputs": [],
      "name": "implement",
      "outputs": [],
      "stateMutability": "nonpayable",
      "type": "function"
    },
    {
      "inputs": [
        {
          "internalType": "address",
          "name": "",
          "type": "address"
        }
      ],
      "name": "implemented",
      "outputs": [
        {
          "internalType": "bool",
          "name": "",
          "type": "bool"
        }
      ],
      "stateMutability": "view",
      "type": "function"
    }
  ],
  "transactionHash": "0x08843ba6527e66812b66d37f1341f24236d7bde016303d96ad8a3de9a6fe353c",
  "args": [],
  "numDeployments": 5,
  "solcInputHash": "91779a42e23b4813b5e6754ac129a2e3",
  "bytecode": "0x6080604052600f60015534801561001557600080fd5b506104b7806100256000396000f3fe60806040526004361061003f5760003560e01c806368d0565f146100445780637647deea146100895780639b2e544a1461009e578063aa254851146100cc575b600080fd5b34801561005057600080fd5b5061007461005f3660046103d6565b60006020819052908152604090205460ff1681565b60405190151581526020015b60405180910390f35b61009c6100973660046103d6565b6100e1565b005b3480156100aa57600080fd5b506100be6100b9366004610406565b610200565b604051908152602001610080565b3480156100d857600080fd5b5061009c610222565b6001600160a01b03811660009081526020819052604090205460ff1615156001146101535760405162461bcd60e51b815260206004820181905260248201527f56696374696d206861736e277420696d706c656d656e7420636f6e747261637460448201526064015b60405180910390fd5b600034116101955760405162461bcd60e51b815260206004820152600f60248201526e043616e2774206465706f736974203608c1b604482015260640161014a565b60006101a034610200565b90506101ad823483610294565b6101b681610343565b60408051348152602081018390526001600160a01b0384169133917fad8bc86c0e6444de8f013469f48545b05a18516582ac5f661224d0c66d659d9b910160405180910390a35050565b60006064600154836102129190610435565b61021c919061044c565b92915050565b3360009081526020819052604090205460ff16156102785760405162461bcd60e51b8152602060048201526013602482015272105b1c9958591e481a5b5c1b195b595b9d1959606a1b604482015260640161014a565b336000908152602081905260409020805460ff19166001179055565b60006102a0828461046e565b90506000846001600160a01b03168260405160006040518083038185875af1925050503d80600081146102ef576040519150601f19603f3d011682016040523d82523d6000602084013e6102f4565b606091505b505090508061033c5760405162461bcd60e51b815260206004820152601460248201527314995d1d5c9b881d9a58dd1a5b4819985a5b195960621b604482015260640161014a565b5050505050565b604051600090339083908381818185875af1925050503d8060008114610385576040519150601f19603f3d011682016040523d82523d6000602084013e61038a565b606091505b50509050806103d25760405162461bcd60e51b815260206004820152601460248201527314995dd85c9908189bdd5b9d1e4819985a5b195960621b604482015260640161014a565b5050565b6000602082840312156103e857600080fd5b81356001600160a01b03811681146103ff57600080fd5b9392505050565b60006020828403121561041857600080fd5b5035919050565b634e487b7160e01b600052601160045260246000fd5b808202811582820484141761021c5761021c61041f565b60008261046957634e487b7160e01b600052601260045260246000fd5b500490565b8181038181111561021c5761021c61041f56fea26469706673582212200826e7fe4fd6b7fe2604bad6eaa6ce925b95b38c23ead6b4d7b37c824f6fcf0364736f6c63430008110033",
  "devdoc": {
    "kind": "dev",
    "methods": {},
    "version": 1
  },
  "userdoc": {
    "kind": "user",
    "methods": {},
    "version": 1
  },
  "storageLayout": {
    "storage": [
      {
        "astId": 15,
        "contract": "contracts/GreyHat.sol:GreyHat",
        "label": "implemented",
        "offset": 0,
        "slot": "0",
        "type": "t_mapping(t_address,t_bool)"
      },
      {
        "astId": 18,
        "contract": "contracts/GreyHat.sol:GreyHat",
        "label": "bountyPortion",
        "offset": 0,
        "slot": "1",
        "type": "t_uint256"
      }
    ],
    "types": {
      "t_address": {
        "encoding": "inplace",
        "label": "address",
        "numberOfBytes": "20"
      },
      "t_bool": {
        "encoding": "inplace",
        "label": "bool",
        "numberOfBytes": "1"
      },
      "t_mapping(t_address,t_bool)": {
        "encoding": "mapping",
        "key": "t_address",
        "label": "mapping(address => bool)",
        "numberOfBytes": "32",
        "value": "t_bool"
      },
      "t_uint256": {
        "encoding": "inplace",
        "label": "uint256",
        "numberOfBytes": "32"
      }
    }
  }
}