{
  "address": "0x9D1C9fe34143EB7Ed2F23568aCCB5cF753B635Af",
  "abi": [
    {
      "inputs": [],
      "stateMutability": "nonpayable",
      "type": "constructor"
    },
    {
      "inputs": [
        {
          "internalType": "uint256",
          "name": "fund",
          "type": "uint256"
        }
      ],
      "name": "bountyCalculate",
      "outputs": [
        {
          "internalType": "uint256",
          "name": "",
          "type": "uint256"
        }
      ],
      "stateMutability": "view",
      "type": "function"
    },
    {
      "inputs": [
        {
          "internalType": "address",
          "name": "protocol",
          "type": "address"
        }
      ],
      "name": "depositExploitedFund",
      "outputs": [],
      "stateMutability": "payable",
      "type": "function"
    },
    {
      "inputs": [],
      "name": "implement",
      "outputs": [],
      "stateMutability": "nonpayable",
      "type": "function"
    },
    {
      "inputs": [
        {
          "internalType": "address",
          "name": "",
          "type": "address"
        }
      ],
      "name": "implemented",
      "outputs": [
        {
          "internalType": "bool",
          "name": "",
          "type": "bool"
        }
      ],
      "stateMutability": "view",
      "type": "function"
    },
    {
      "inputs": [
        {
          "internalType": "address",
          "name": "",
          "type": "address"
        }
      ],
      "name": "track",
      "outputs": [
        {
          "internalType": "address",
          "name": "exploiter",
          "type": "address"
        },
        {
          "internalType": "uint256",
          "name": "amount",
          "type": "uint256"
        },
        {
          "internalType": "bool",
          "name": "returned",
          "type": "bool"
        }
      ],
      "stateMutability": "view",
      "type": "function"
    }
  ],
  "transactionHash": "0x7b219e3832e3d140caa405e91d5c7b8b64fa6e251b5de43c6b5f762717f2a4ec",
  "args": [],
  "numDeployments": 3,
  "solcInputHash": "4b4190b68cbe4b05a6dda2ce3d1a41a5",
  "bytecode": "0x6080604052600f60025534801561001557600080fd5b50610520806100256000396000f3fe60806040526004361061004a5760003560e01c80630dc174bd1461004f57806368d0565f146100c55780637647deea146101055780639b2e544a1461011a578063aa25485114610148575b600080fd5b34801561005b57600080fd5b5061009961006a36600461043f565b60016020819052600091825260409091208054918101546002909101546001600160a01b039092169160ff1683565b604080516001600160a01b03909416845260208401929092521515908201526060015b60405180910390f35b3480156100d157600080fd5b506100f56100e036600461043f565b60006020819052908152604090205460ff1681565b60405190151581526020016100bc565b61011861011336600461043f565b61015d565b005b34801561012657600080fd5b5061013a61013536600461046f565b610267565b6040519081526020016100bc565b34801561015457600080fd5b50610118610289565b6001600160a01b03811660009081526020819052604090205460ff1615156001146101da5760405162461bcd60e51b815260206004820152602260248201527f50726f746f636f6c206861736e277420696d706c656d656e7420636f6e74726160448201526118dd60f21b60648201526084015b60405180910390fd5b60006101e534610267565b90506101f28234836102fb565b6101fb816103ac565b506040805160608101825233815234602080830191825260018385018181526001600160a01b0396871660009081529282905294909120925183546001600160a01b03191695169490941782555192810192909255516002909101805460ff1916911515919091179055565b6000606460025483610279919061049e565b61028391906104b5565b92915050565b3360009081526020819052604090205460ff16156102df5760405162461bcd60e51b8152602060048201526013602482015272105b1c9958591e481a5b5c1b195b595b9d1959606a1b60448201526064016101d1565b336000908152602081905260409020805460ff19166001179055565b600061030782846104d7565b90506000846001600160a01b03168260405160006040518083038185875af1925050503d8060008114610356576040519150601f19603f3d011682016040523d82523d6000602084013e61035b565b606091505b50509050806103a55760405162461bcd60e51b815260206004820152601660248201527514995d1d5c9b881c1c9bdd1bd8dbdb0819985a5b195960521b60448201526064016101d1565b5050505050565b604051600090339083908381818185875af1925050503d80600081146103ee576040519150601f19603f3d011682016040523d82523d6000602084013e6103f3565b606091505b505090508061043b5760405162461bcd60e51b815260206004820152601460248201527314995dd85c9908189bdd5b9d1e4819985a5b195960621b60448201526064016101d1565b5050565b60006020828403121561045157600080fd5b81356001600160a01b038116811461046857600080fd5b9392505050565b60006020828403121561048157600080fd5b5035919050565b634e487b7160e01b600052601160045260246000fd5b808202811582820484141761028357610283610488565b6000826104d257634e487b7160e01b600052601260045260246000fd5b500490565b818103818111156102835761028361048856fea264697066735822122005d2312058ef99e9227e9fb0b8710471d57ac169c1237ff6516f9f2b82ccd1e664736f6c63430008110033",
  "devdoc": {
    "kind": "dev",
    "methods": {},
    "version": 1
  },
  "userdoc": {
    "kind": "user",
    "methods": {},
    "version": 1
  },
  "storageLayout": {
    "storage": [
      {
        "astId": 16,
        "contract": "contracts/GreyHat.sol:GreyHat",
        "label": "implemented",
        "offset": 0,
        "slot": "0",
        "type": "t_mapping(t_address,t_bool)"
      },
      {
        "astId": 21,
        "contract": "contracts/GreyHat.sol:GreyHat",
        "label": "track",
        "offset": 0,
        "slot": "1",
        "type": "t_mapping(t_address,t_struct(GoodHacker)12_storage)"
      },
      {
        "astId": 24,
        "contract": "contracts/GreyHat.sol:GreyHat",
        "label": "bountyPortion",
        "offset": 0,
        "slot": "2",
        "type": "t_uint256"
      }
    ],
    "types": {
      "t_address": {
        "encoding": "inplace",
        "label": "address",
        "numberOfBytes": "20"
      },
      "t_bool": {
        "encoding": "inplace",
        "label": "bool",
        "numberOfBytes": "1"
      },
      "t_mapping(t_address,t_bool)": {
        "encoding": "mapping",
        "key": "t_address",
        "label": "mapping(address => bool)",
        "numberOfBytes": "32",
        "value": "t_bool"
      },
      "t_mapping(t_address,t_struct(GoodHacker)12_storage)": {
        "encoding": "mapping",
        "key": "t_address",
        "label": "mapping(address => struct GreyHat.GoodHacker)",
        "numberOfBytes": "32",
        "value": "t_struct(GoodHacker)12_storage"
      },
      "t_struct(GoodHacker)12_storage": {
        "encoding": "inplace",
        "label": "struct GreyHat.GoodHacker",
        "members": [
          {
            "astId": 7,
            "contract": "contracts/GreyHat.sol:GreyHat",
            "label": "exploiter",
            "offset": 0,
            "slot": "0",
            "type": "t_address"
          },
          {
            "astId": 9,
            "contract": "contracts/GreyHat.sol:GreyHat",
            "label": "amount",
            "offset": 0,
            "slot": "1",
            "type": "t_uint256"
          },
          {
            "astId": 11,
            "contract": "contracts/GreyHat.sol:GreyHat",
            "label": "returned",
            "offset": 0,
            "slot": "2",
            "type": "t_bool"
          }
        ],
        "numberOfBytes": "96"
      },
      "t_uint256": {
        "encoding": "inplace",
        "label": "uint256",
        "numberOfBytes": "32"
      }
    }
  }
}