{
  "address": "0x3384371AF33358C6120F5594EBD22202E7BA845f",
  "abi": [
    {
      "inputs": [],
      "stateMutability": "nonpayable",
      "type": "constructor"
    },
    {
      "inputs": [
        {
          "internalType": "uint256",
          "name": "fund",
          "type": "uint256"
        }
      ],
      "name": "bountyCalculate",
      "outputs": [
        {
          "internalType": "uint256",
          "name": "",
          "type": "uint256"
        }
      ],
      "stateMutability": "view",
      "type": "function"
    },
    {
      "inputs": [
        {
          "internalType": "address",
          "name": "protocol",
          "type": "address"
        }
      ],
      "name": "depositExploitedFund",
      "outputs": [],
      "stateMutability": "payable",
      "type": "function"
    },
    {
      "inputs": [],
      "name": "implement",
      "outputs": [],
      "stateMutability": "nonpayable",
      "type": "function"
    },
    {
      "inputs": [
        {
          "internalType": "address",
          "name": "",
          "type": "address"
        }
      ],
      "name": "implemented",
      "outputs": [
        {
          "internalType": "bool",
          "name": "",
          "type": "bool"
        }
      ],
      "stateMutability": "view",
      "type": "function"
    },
    {
      "inputs": [
        {
          "internalType": "address",
          "name": "",
          "type": "address"
        }
      ],
      "name": "track",
      "outputs": [
        {
          "internalType": "address",
          "name": "exploiter",
          "type": "address"
        },
        {
          "internalType": "uint256",
          "name": "amount",
          "type": "uint256"
        },
        {
          "internalType": "bool",
          "name": "returned",
          "type": "bool"
        }
      ],
      "stateMutability": "view",
      "type": "function"
    }
  ],
  "transactionHash": "0xb052bdc9c5f9f30e3d7a6422d85122b013c6538a46f7c98d9d8d49b490e0bb66",
  "args": [],
  "numDeployments": 4,
  "solcInputHash": "a6555d847dd636849ed94b1930858aad",
  "bytecode": "0x6080604052600f60025534801561001557600080fd5b50610562806100256000396000f3fe60806040526004361061004a5760003560e01c80630dc174bd1461004f57806368d0565f146100c55780637647deea146101055780639b2e544a1461011a578063aa25485114610148575b600080fd5b34801561005b57600080fd5b5061009961006a366004610481565b60016020819052600091825260409091208054918101546002909101546001600160a01b039092169160ff1683565b604080516001600160a01b03909416845260208401929092521515908201526060015b60405180910390f35b3480156100d157600080fd5b506100f56100e0366004610481565b60006020819052908152604090205460ff1681565b60405190151581526020016100bc565b610118610113366004610481565b61015d565b005b34801561012657600080fd5b5061013a6101353660046104b1565b6102a9565b6040519081526020016100bc565b34801561015457600080fd5b506101186102cb565b6001600160a01b03811660009081526020819052604090205460ff1615156001146101da5760405162461bcd60e51b815260206004820152602260248201527f50726f746f636f6c206861736e277420696d706c656d656e7420636f6e74726160448201526118dd60f21b60648201526084015b60405180910390fd5b6000341161021c5760405162461bcd60e51b815260206004820152600f60248201526e043616e2774206465706f736974203608c1b60448201526064016101d1565b6000610227346102a9565b905061023482348361033d565b61023d816103ee565b506040805160608101825233815234602080830191825260018385018181526001600160a01b0396871660009081529282905294909120925183546001600160a01b03191695169490941782555192810192909255516002909101805460ff1916911515919091179055565b60006064600254836102bb91906104e0565b6102c591906104f7565b92915050565b3360009081526020819052604090205460ff16156103215760405162461bcd60e51b8152602060048201526013602482015272105b1c9958591e481a5b5c1b195b595b9d1959606a1b60448201526064016101d1565b336000908152602081905260409020805460ff19166001179055565b60006103498284610519565b90506000846001600160a01b03168260405160006040518083038185875af1925050503d8060008114610398576040519150601f19603f3d011682016040523d82523d6000602084013e61039d565b606091505b50509050806103e75760405162461bcd60e51b815260206004820152601660248201527514995d1d5c9b881c1c9bdd1bd8dbdb0819985a5b195960521b60448201526064016101d1565b5050505050565b604051600090339083908381818185875af1925050503d8060008114610430576040519150601f19603f3d011682016040523d82523d6000602084013e610435565b606091505b505090508061047d5760405162461bcd60e51b815260206004820152601460248201527314995dd85c9908189bdd5b9d1e4819985a5b195960621b60448201526064016101d1565b5050565b60006020828403121561049357600080fd5b81356001600160a01b03811681146104aa57600080fd5b9392505050565b6000602082840312156104c357600080fd5b5035919050565b634e487b7160e01b600052601160045260246000fd5b80820281158282048414176102c5576102c56104ca565b60008261051457634e487b7160e01b600052601260045260246000fd5b500490565b818103818111156102c5576102c56104ca56fea2646970667358221220c4d1e6d3056fa24841dad139044687bd6f8890dca49607bbca925af6fc5df6a564736f6c63430008110033",
  "devdoc": {
    "kind": "dev",
    "methods": {},
    "version": 1
  },
  "userdoc": {
    "kind": "user",
    "methods": {},
    "version": 1
  },
  "storageLayout": {
    "storage": [
      {
        "astId": 16,
        "contract": "contracts/GreyHat.sol:GreyHat",
        "label": "implemented",
        "offset": 0,
        "slot": "0",
        "type": "t_mapping(t_address,t_bool)"
      },
      {
        "astId": 21,
        "contract": "contracts/GreyHat.sol:GreyHat",
        "label": "track",
        "offset": 0,
        "slot": "1",
        "type": "t_mapping(t_address,t_struct(GoodHacker)12_storage)"
      },
      {
        "astId": 24,
        "contract": "contracts/GreyHat.sol:GreyHat",
        "label": "bountyPortion",
        "offset": 0,
        "slot": "2",
        "type": "t_uint256"
      }
    ],
    "types": {
      "t_address": {
        "encoding": "inplace",
        "label": "address",
        "numberOfBytes": "20"
      },
      "t_bool": {
        "encoding": "inplace",
        "label": "bool",
        "numberOfBytes": "1"
      },
      "t_mapping(t_address,t_bool)": {
        "encoding": "mapping",
        "key": "t_address",
        "label": "mapping(address => bool)",
        "numberOfBytes": "32",
        "value": "t_bool"
      },
      "t_mapping(t_address,t_struct(GoodHacker)12_storage)": {
        "encoding": "mapping",
        "key": "t_address",
        "label": "mapping(address => struct GreyHat.GoodHacker)",
        "numberOfBytes": "32",
        "value": "t_struct(GoodHacker)12_storage"
      },
      "t_struct(GoodHacker)12_storage": {
        "encoding": "inplace",
        "label": "struct GreyHat.GoodHacker",
        "members": [
          {
            "astId": 7,
            "contract": "contracts/GreyHat.sol:GreyHat",
            "label": "exploiter",
            "offset": 0,
            "slot": "0",
            "type": "t_address"
          },
          {
            "astId": 9,
            "contract": "contracts/GreyHat.sol:GreyHat",
            "label": "amount",
            "offset": 0,
            "slot": "1",
            "type": "t_uint256"
          },
          {
            "astId": 11,
            "contract": "contracts/GreyHat.sol:GreyHat",
            "label": "returned",
            "offset": 0,
            "slot": "2",
            "type": "t_bool"
          }
        ],
        "numberOfBytes": "96"
      },
      "t_uint256": {
        "encoding": "inplace",
        "label": "uint256",
        "numberOfBytes": "32"
      }
    }
  }
}